{
  "_format": "hh-sol-artifact-1",
  "contractName": "DEFI",
  "sourceName": "contracts/DEFI.sol",
  "abi": [
    {
      "inputs": [
        {
          "internalType": "uint256",
          "name": "fee",
          "type": "uint256"
        }
      ],
      "stateMutability": "nonpayable",
      "type": "constructor"
    },
    {
      "inputs": [],
      "name": "FEE",
      "outputs": [
        {
          "internalType": "uint256",
          "name": "",
          "type": "uint256"
        }
      ],
      "stateMutability": "view",
      "type": "function"
    },
    {
      "inputs": [],
      "name": "owner",
      "outputs": [
        {
          "internalType": "address",
          "name": "",
          "type": "address"
        }
      ],
      "stateMutability": "view",
      "type": "function"
    },
    {
      "inputs": [
        {
          "internalType": "uint256",
          "name": "fee",
          "type": "uint256"
        }
      ],
      "name": "setFEE",
      "outputs": [],
      "stateMutability": "nonpayable",
      "type": "function"
    },
    {
      "inputs": [
        {
          "internalType": "address",
          "name": "_to",
          "type": "address"
        }
      ],
      "name": "transferOwnership",
      "outputs": [],
      "stateMutability": "nonpayable",
      "type": "function"
    }
  ],
  "bytecode": "0x608060405234801561001057600080fd5b5060405161026a38038061026a83398101604081905261002f91610049565b600080546001600160a01b03191633179055600155610062565b60006020828403121561005b57600080fd5b5051919050565b6101f9806100716000396000f3fe608060405234801561001057600080fd5b506004361061004c5760003560e01c806316dd1cbc146100515780638da5cb5b14610066578063c57981b514610096578063f2fde38b146100ad575b600080fd5b61006461005f36600461017a565b6100c0565b005b600054610079906001600160a01b031681565b6040516001600160a01b0390911681526020015b60405180910390f35b61009f60015481565b60405190815260200161008d565b6100646100bb366004610193565b610111565b6000546001600160a01b0316331461010c5760405162461bcd60e51b815260206004820152600a6024820152693a9037379037bbb732b960b11b60448201526064015b60405180910390fd5b600155565b6000546001600160a01b031633146101585760405162461bcd60e51b815260206004820152600a6024820152693a9037379037bbb732b960b11b6044820152606401610103565b600080546001600160a01b0319166001600160a01b0392909216919091179055565b60006020828403121561018c57600080fd5b5035919050565b6000602082840312156101a557600080fd5b81356001600160a01b03811681146101bc57600080fd5b939250505056fea264697066735822122012ffabcc09bb4877399bf939f46d05abd0fe1ba275a5db577c3b8a996167565864736f6c634300080f0033",
  "linkReferences": {},
  "deployedLinkReferences": {}
}