{
  "_format": "hh-sol-artifact-1",
  "contractName": "FundsDisperser",
  "sourceName": "contracts/FundsDisperser.sol",
  "abi": [
    {
      "anonymous": false,
      "inputs": [
        {
          "indexed": true,
          "internalType": "address",
          "name": "from",
          "type": "address"
        },
        {
          "indexed": true,
          "internalType": "address",
          "name": "to",
          "type": "address"
        },
        {
          "indexed": false,
          "internalType": "uint256",
          "name": "value",
          "type": "uint256"
        }
      ],
      "name": "Transfer",
      "type": "event"
    },
    {
      "inputs": [
        {
          "internalType": "address[]",
          "name": "wallets",
          "type": "address[]"
        },
        {
          "internalType": "uint256[]",
          "name": "amounts",
          "type": "uint256[]"
        }
      ],
      "name": "disperseEther",
      "outputs": [],
      "stateMutability": "payable",
      "type": "function"
    },
    {
      "inputs": [
        {
          "internalType": "contract IERC20",
          "name": "token",
          "type": "address"
        },
        {
          "internalType": "address[]",
          "name": "wallets",
          "type": "address[]"
        },
        {
          "internalType": "uint256[]",
          "name": "amounts",
          "type": "uint256[]"
        }
      ],
      "name": "disperseTokens",
      "outputs": [],
      "stateMutability": "nonpayable",
      "type": "function"
    }
  ],
  "bytecode": "0x608060405234801561001057600080fd5b506108b8806100206000396000f3fe6080604052600436106100295760003560e01c80638b6e369e1461002e578063e63d38ed14610057575b600080fd5b34801561003a57600080fd5b506100556004803603810190610050919061050f565b610073565b005b610071600480360381019061006c91906105a4565b610237565b005b6000805b858590508110156100bc5783838281811061009557610094610625565b5b90506020020135826100a7919061068d565b915080806100b4906106e3565b915050610077565b508573ffffffffffffffffffffffffffffffffffffffff166323b872dd3330846040518463ffffffff1660e01b81526004016100fa93929190610749565b6020604051808303816000875af1158015610119573d6000803e3d6000fd5b505050506040513d601f19601f8201168201806040525081019061013d91906107b8565b61014657600080fd5b60005b8585905081101561022e578673ffffffffffffffffffffffffffffffffffffffff1663a9059cbb87878481811061018357610182610625565b5b90506020020160208101906101989190610811565b8686858181106101ab576101aa610625565b5b905060200201356040518363ffffffff1660e01b81526004016101cf92919061083e565b6020604051808303816000875af11580156101ee573d6000803e3d6000fd5b505050506040513d601f19601f8201168201806040525081019061021291906107b8565b61021b57600080fd5b8080610226906106e3565b915050610149565b50505050505050565b60005b848490508110156103825784848281811061025857610257610625565b5b905060200201602081019061026d9190610811565b73ffffffffffffffffffffffffffffffffffffffff166108fc84848481811061029957610298610625565b5b905060200201359081150290604051600060405180830381858888f193505050501580156102cb573d6000803e3d6000fd5b508484828181106102df576102de610625565b5b90506020020160208101906102f49190610811565b73ffffffffffffffffffffffffffffffffffffffff163373ffffffffffffffffffffffffffffffffffffffff167fddf252ad1be2c89b69c2b068fc378daa952ba7f163c4a11628f55a4df523b3ef85858581811061035557610354610625565b5b905060200201356040516103699190610867565b60405180910390a38061037b906106e3565b905061023a565b5060004711156103d4573373ffffffffffffffffffffffffffffffffffffffff166108fc479081150290604051600060405180830381858888f193505050501580156103d2573d6000803e3d6000fd5b505b50505050565b600080fd5b600080fd5b600073ffffffffffffffffffffffffffffffffffffffff82169050919050565b600061040f826103e4565b9050919050565b600061042182610404565b9050919050565b61043181610416565b811461043c57600080fd5b50565b60008135905061044e81610428565b92915050565b600080fd5b600080fd5b600080fd5b60008083601f84011261047957610478610454565b5b8235905067ffffffffffffffff81111561049657610495610459565b5b6020830191508360208202830111156104b2576104b161045e565b5b9250929050565b60008083601f8401126104cf576104ce610454565b5b8235905067ffffffffffffffff8111156104ec576104eb610459565b5b6020830191508360208202830111156105085761050761045e565b5b9250929050565b60008060008060006060868803121561052b5761052a6103da565b5b60006105398882890161043f565b955050602086013567ffffffffffffffff81111561055a576105596103df565b5b61056688828901610463565b9450945050604086013567ffffffffffffffff811115610589576105886103df565b5b610595888289016104b9565b92509250509295509295909350565b600080600080604085870312156105be576105bd6103da565b5b600085013567ffffffffffffffff8111156105dc576105db6103df565b5b6105e887828801610463565b9450945050602085013567ffffffffffffffff81111561060b5761060a6103df565b5b610617878288016104b9565b925092505092959194509250565b7f4e487b7100000000000000000000000000000000000000000000000000000000600052603260045260246000fd5b6000819050919050565b7f4e487b7100000000000000000000000000000000000000000000000000000000600052601160045260246000fd5b600061069882610654565b91506106a383610654565b9250827fffffffffffffffffffffffffffffffffffffffffffffffffffffffffffffffff038211156106d8576106d761065e565b5b828201905092915050565b60006106ee82610654565b91507fffffffffffffffffffffffffffffffffffffffffffffffffffffffffffffffff82036107205761071f61065e565b5b600182019050919050565b61073481610404565b82525050565b61074381610654565b82525050565b600060608201905061075e600083018661072b565b61076b602083018561072b565b610778604083018461073a565b949350505050565b60008115159050919050565b61079581610780565b81146107a057600080fd5b50565b6000815190506107b28161078c565b92915050565b6000602082840312156107ce576107cd6103da565b5b60006107dc848285016107a3565b91505092915050565b6107ee81610404565b81146107f957600080fd5b50565b60008135905061080b816107e5565b92915050565b600060208284031215610827576108266103da565b5b6000610835848285016107fc565b91505092915050565b6000604082019050610853600083018561072b565b610860602083018461073a565b9392505050565b600060208201905061087c600083018461073a565b9291505056fea26469706673582212209de47fe0d5a21c33550a9e4529f126b096a4e630859196f4813cd020a6cad3f664736f6c634300080f0033",
  "linkReferences": {},
  "deployedLinkReferences": {}
}