{
  "_format": "hh-sol-artifact-1",
  "contractName": "Golos",
  "sourceName": "contracts/LazyGolos.sol",
  "abi": [
    {
      "inputs": [
        {
          "internalType": "string",
          "name": "name_",
          "type": "string"
        },
        {
          "internalType": "string",
          "name": "symbol_",
          "type": "string"
        }
      ],
      "stateMutability": "nonpayable",
      "type": "constructor"
    },
    {
      "anonymous": false,
      "inputs": [
        {
          "indexed": true,
          "internalType": "address",
          "name": "owner",
          "type": "address"
        },
        {
          "indexed": true,
          "internalType": "address",
          "name": "spender",
          "type": "address"
        },
        {
          "indexed": false,
          "internalType": "uint256",
          "name": "value",
          "type": "uint256"
        }
      ],
      "name": "Approval",
      "type": "event"
    },
    {
      "anonymous": false,
      "inputs": [
        {
          "indexed": true,
          "internalType": "address",
          "name": "from",
          "type": "address"
        },
        {
          "indexed": true,
          "internalType": "address",
          "name": "to",
          "type": "address"
        },
        {
          "indexed": false,
          "internalType": "uint256",
          "name": "value",
          "type": "uint256"
        }
      ],
      "name": "Transfer",
      "type": "event"
    },
    {
      "inputs": [
        {
          "internalType": "address",
          "name": "owner",
          "type": "address"
        },
        {
          "internalType": "address",
          "name": "spender",
          "type": "address"
        }
      ],
      "name": "allowance",
      "outputs": [
        {
          "internalType": "uint256",
          "name": "",
          "type": "uint256"
        }
      ],
      "stateMutability": "view",
      "type": "function"
    },
    {
      "inputs": [
        {
          "internalType": "address",
          "name": "spender",
          "type": "address"
        },
        {
          "internalType": "uint256",
          "name": "amount",
          "type": "uint256"
        }
      ],
      "name": "approve",
      "outputs": [
        {
          "internalType": "bool",
          "name": "",
          "type": "bool"
        }
      ],
      "stateMutability": "nonpayable",
      "type": "function"
    },
    {
      "inputs": [
        {
          "internalType": "address",
          "name": "account",
          "type": "address"
        }
      ],
      "name": "balanceOf",
      "outputs": [
        {
          "internalType": "uint256",
          "name": "",
          "type": "uint256"
        }
      ],
      "stateMutability": "view",
      "type": "function"
    },
    {
      "inputs": [
        {
          "internalType": "uint32",
          "name": "id",
          "type": "uint32"
        },
        {
          "internalType": "address",
          "name": "account",
          "type": "address"
        }
      ],
      "name": "balanceOfVoting",
      "outputs": [
        {
          "internalType": "uint256",
          "name": "",
          "type": "uint256"
        }
      ],
      "stateMutability": "view",
      "type": "function"
    },
    {
      "inputs": [
        {
          "internalType": "uint32",
          "name": "id",
          "type": "uint32"
        },
        {
          "internalType": "address",
          "name": "from",
          "type": "address"
        }
      ],
      "name": "burnVotes",
      "outputs": [
        {
          "internalType": "uint256",
          "name": "votes",
          "type": "uint256"
        }
      ],
      "stateMutability": "nonpayable",
      "type": "function"
    },
    {
      "inputs": [],
      "name": "decimals",
      "outputs": [
        {
          "internalType": "uint8",
          "name": "",
          "type": "uint8"
        }
      ],
      "stateMutability": "view",
      "type": "function"
    },
    {
      "inputs": [
        {
          "internalType": "address",
          "name": "spender",
          "type": "address"
        },
        {
          "internalType": "uint256",
          "name": "subtractedValue",
          "type": "uint256"
        }
      ],
      "name": "decreaseAllowance",
      "outputs": [
        {
          "internalType": "bool",
          "name": "",
          "type": "bool"
        }
      ],
      "stateMutability": "nonpayable",
      "type": "function"
    },
    {
      "inputs": [
        {
          "internalType": "address",
          "name": "spender",
          "type": "address"
        },
        {
          "internalType": "uint256",
          "name": "addedValue",
          "type": "uint256"
        }
      ],
      "name": "increaseAllowance",
      "outputs": [
        {
          "internalType": "bool",
          "name": "",
          "type": "bool"
        }
      ],
      "stateMutability": "nonpayable",
      "type": "function"
    },
    {
      "inputs": [],
      "name": "name",
      "outputs": [
        {
          "internalType": "string",
          "name": "",
          "type": "string"
        }
      ],
      "stateMutability": "view",
      "type": "function"
    },
    {
      "inputs": [],
      "name": "owner",
      "outputs": [
        {
          "internalType": "address",
          "name": "",
          "type": "address"
        }
      ],
      "stateMutability": "view",
      "type": "function"
    },
    {
      "inputs": [],
      "name": "symbol",
      "outputs": [
        {
          "internalType": "string",
          "name": "",
          "type": "string"
        }
      ],
      "stateMutability": "view",
      "type": "function"
    },
    {
      "inputs": [],
      "name": "totalSupply",
      "outputs": [
        {
          "internalType": "uint256",
          "name": "",
          "type": "uint256"
        }
      ],
      "stateMutability": "view",
      "type": "function"
    },
    {
      "inputs": [
        {
          "internalType": "address",
          "name": "to",
          "type": "address"
        },
        {
          "internalType": "uint256",
          "name": "amount",
          "type": "uint256"
        }
      ],
      "name": "transfer",
      "outputs": [
        {
          "internalType": "bool",
          "name": "",
          "type": "bool"
        }
      ],
      "stateMutability": "nonpayable",
      "type": "function"
    },
    {
      "inputs": [
        {
          "internalType": "address",
          "name": "from",
          "type": "address"
        },
        {
          "internalType": "address",
          "name": "to",
          "type": "address"
        },
        {
          "internalType": "uint256",
          "name": "amount",
          "type": "uint256"
        }
      ],
      "name": "transferFrom",
      "outputs": [
        {
          "internalType": "bool",
          "name": "",
          "type": "bool"
        }
      ],
      "stateMutability": "nonpayable",
      "type": "function"
    },
    {
      "inputs": [
        {
          "internalType": "contract VotingMachine",
          "name": "vm",
          "type": "address"
        }
      ],
      "name": "transferOwnership",
      "outputs": [],
      "stateMutability": "nonpayable",
      "type": "function"
    }
  ],
  "bytecode": "0x60806040523480156200001157600080fd5b506040516200129f3803806200129f83398101604081905262000034916200013e565b8181600362000044838262000237565b50600462000053828262000237565b5050600680546001600160a01b031916331790555062000303915050565b634e487b7160e01b600052604160045260246000fd5b600082601f8301126200009957600080fd5b81516001600160401b0380821115620000b657620000b662000071565b604051601f8301601f19908116603f01168101908282118183101715620000e157620000e162000071565b81604052838152602092508683858801011115620000fe57600080fd5b600091505b8382101562000122578582018301518183018401529082019062000103565b83821115620001345760008385830101525b9695505050505050565b600080604083850312156200015257600080fd5b82516001600160401b03808211156200016a57600080fd5b620001788683870162000087565b935060208501519150808211156200018f57600080fd5b506200019e8582860162000087565b9150509250929050565b600181811c90821680620001bd57607f821691505b602082108103620001de57634e487b7160e01b600052602260045260246000fd5b50919050565b601f8211156200023257600081815260208120601f850160051c810160208610156200020d5750805b601f850160051c820191505b818110156200022e5782815560010162000219565b5050505b505050565b81516001600160401b0381111562000253576200025362000071565b6200026b81620002648454620001a8565b84620001e4565b602080601f831160018114620002a357600084156200028a5750858301515b600019600386901b1c1916600185901b1785556200022e565b600085815260208120601f198616915b82811015620002d457888601518255948401946001909101908401620002b3565b5085821015620002f35787850151600019600388901b60f8161c191681555b5050505050600190811b01905550565b610f8c80620003136000396000f3fe608060405234801561001057600080fd5b50600436106100f55760003560e01c806370a0823111610097578063a9059cbb11610066578063a9059cbb14610204578063dd62ed3e14610217578063edeec0831461022a578063f2fde38b1461023d57600080fd5b806370a08231146101955780638da5cb5b146101be57806395d89b41146101e9578063a457c2d7146101f157600080fd5b806323b872dd116100d357806323b872dd1461014d5780632da2ef2414610160578063313ce56714610173578063395093511461018257600080fd5b806306fdde03146100fa578063095ea7b31461011857806318160ddd1461013b575b600080fd5b610102610252565b60405161010f9190610c5b565b60405180910390f35b61012b610126366004610cc8565b6102e4565b604051901515815260200161010f565b6002545b60405190815260200161010f565b61012b61015b366004610cf4565b6102fc565b61013f61016e366004610d47565b610320565b6040516012815260200161010f565b61012b610190366004610cc8565b61046c565b61013f6101a3366004610d80565b6001600160a01b031660009081526020819052604090205490565b6006546101d1906001600160a01b031681565b6040516001600160a01b03909116815260200161010f565b61010261048e565b61012b6101ff366004610cc8565b61049d565b61012b610212366004610cc8565b610518565b61013f610225366004610d9d565b610526565b61013f610238366004610d47565b610551565b61025061024b366004610d80565b6105e2565b005b60606003805461026190610dbb565b80601f016020809104026020016040519081016040528092919081815260200182805461028d90610dbb565b80156102da5780601f106102af576101008083540402835291602001916102da565b820191906000526020600020905b8154815290600101906020018083116102bd57829003601f168201915b5050505050905090565b6000336102f281858561065a565b5060019392505050565b60003361030a85828561077e565b6103158585856107f8565b506001949350505050565b6006546000906001600160a01b031633146103745760405162461bcd60e51b815260206004820152600f60248201526e696c6c6567616c206164647265737360881b60448201526064015b60405180910390fd5b6001600160a01b038216600090815260076020908152604080832063ffffffff8716845290915290205460ff16156103df5760405162461bcd60e51b815260206004820152600e60248201526d616c726561647920766f7465642160901b604482015260640161036b565b506001600160a01b038116600090815260208190526040902054806104315760405162461bcd60e51b81526020600482015260086024820152676e6f20766f74652160c01b604482015260640161036b565b6001600160a01b03909116600090815260076020908152604080832063ffffffff909516835293905291909120805460ff1916600117905590565b6000336102f281858561047f8383610526565b6104899190610e0b565b61065a565b60606004805461026190610dbb565b600033816104ab8286610526565b90508381101561050b5760405162461bcd60e51b815260206004820152602560248201527f45524332303a2064656372656173656420616c6c6f77616e63652062656c6f77604482015264207a65726f60d81b606482015260840161036b565b610315828686840361065a565b6000336102f28185856107f8565b6001600160a01b03918216600090815260016020908152604080832093909416825291909152205490565b60055460405163bfc60ef560e01b815263ffffffff841660048201526000916001600160a01b03169063bfc60ef590602401602060405180830381865afa1580156105a0573d6000803e3d6000fd5b505050506040513d601f19601f820116820180604052508101906105c49190610e23565b156105d8576105d383836109d1565b6105db565b60005b9392505050565b6006546001600160a01b0316331461062e5760405162461bcd60e51b815260206004820152600f60248201526e696c6c6567616c206164647265737360881b604482015260640161036b565b600680546001600160a01b039092166001600160a01b0319928316811790915560058054909216179055565b6001600160a01b0383166106bc5760405162461bcd60e51b8152602060048201526024808201527f45524332303a20617070726f76652066726f6d20746865207a65726f206164646044820152637265737360e01b606482015260840161036b565b6001600160a01b03821661071d5760405162461bcd60e51b815260206004820152602260248201527f45524332303a20617070726f766520746f20746865207a65726f206164647265604482015261737360f01b606482015260840161036b565b6001600160a01b0383811660008181526001602090815260408083209487168084529482529182902085905590518481527f8c5be1e5ebec7d5bd14f71427d1e84f3dd0314c0f7b2291e5b200ac8c7c3b925910160405180910390a3505050565b600061078a8484610526565b905060001981146107f257818110156107e55760405162461bcd60e51b815260206004820152601d60248201527f45524332303a20696e73756666696369656e7420616c6c6f77616e6365000000604482015260640161036b565b6107f2848484840361065a565b50505050565b6001600160a01b03831661085c5760405162461bcd60e51b815260206004820152602560248201527f45524332303a207472616e736665722066726f6d20746865207a65726f206164604482015264647265737360d81b606482015260840161036b565b6001600160a01b0382166108be5760405162461bcd60e51b815260206004820152602360248201527f45524332303a207472616e7366657220746f20746865207a65726f206164647260448201526265737360e81b606482015260840161036b565b6108c9838383610a4a565b6001600160a01b038316600090815260208190526040902054818110156109415760405162461bcd60e51b815260206004820152602660248201527f45524332303a207472616e7366657220616d6f756e7420657863656564732062604482015265616c616e636560d01b606482015260840161036b565b6001600160a01b03808516600090815260208190526040808220858503905591851681529081208054849290610978908490610e0b565b92505081905550826001600160a01b0316846001600160a01b03167fddf252ad1be2c89b69c2b068fc378daa952ba7f163c4a11628f55a4df523b3ef846040516109c491815260200190565b60405180910390a36107f2565b6001600160a01b038116600090815260076020908152604080832063ffffffff8616845282528083208151808301909252805460ff1615158083526001909101549282019290925290610a3c576001600160a01b038316600090815260208190526040902054610a42565b80602001515b949350505050565b60055460408051633fb9121f60e01b815290516000926001600160a01b031691633fb9121f91600480830192869291908290030181865afa158015610a93573d6000803e3d6000fd5b505050506040513d6000823e601f3d908101601f19168201604052610abb9190810190610e62565b905060015b8151811015610c54576000828281518110610add57610add610f27565b6020026020010151905083610af282886109d1565b101580610b0657506001600160a01b038616155b610b695760405162461bcd60e51b815260206004820152602e60248201527f45524332303a207472616e7366657220616d6f756e742065786365656473207660448201526d6f74696e67732062616c616e636560901b606482015260840161036b565b6001600160a01b038616600090815260076020908152604080832063ffffffff8516845290915290205460ff1615610bcf576001600160a01b038616600090815260076020908152604080832063ffffffff851684529091529020600101805485900390555b6001600160a01b038516600090815260076020908152604080832063ffffffff8516845290915290205460ff1615610c43576001600160a01b038516600090815260076020908152604080832063ffffffff8516845290915281206001018054869290610c3d908490610e0b565b90915550505b50610c4d81610f3d565b9050610ac0565b5050505050565b600060208083528351808285015260005b81811015610c8857858101830151858201604001528201610c6c565b81811115610c9a576000604083870101525b50601f01601f1916929092016040019392505050565b6001600160a01b0381168114610cc557600080fd5b50565b60008060408385031215610cdb57600080fd5b8235610ce681610cb0565b946020939093013593505050565b600080600060608486031215610d0957600080fd5b8335610d1481610cb0565b92506020840135610d2481610cb0565b929592945050506040919091013590565b63ffffffff81168114610cc557600080fd5b60008060408385031215610d5a57600080fd5b8235610d6581610d35565b91506020830135610d7581610cb0565b809150509250929050565b600060208284031215610d9257600080fd5b81356105db81610cb0565b60008060408385031215610db057600080fd5b8235610d6581610cb0565b600181811c90821680610dcf57607f821691505b602082108103610def57634e487b7160e01b600052602260045260246000fd5b50919050565b634e487b7160e01b600052601160045260246000fd5b60008219821115610e1e57610e1e610df5565b500190565b600060208284031215610e3557600080fd5b5051919050565b634e487b7160e01b600052604160045260246000fd5b8051610e5d81610d35565b919050565b60006020808385031215610e7557600080fd5b825167ffffffffffffffff80821115610e8d57600080fd5b818501915085601f830112610ea157600080fd5b815181811115610eb357610eb3610e3c565b8060051b604051601f19603f83011681018181108582111715610ed857610ed8610e3c565b604052918252848201925083810185019188831115610ef657600080fd5b938501935b82851015610f1b57610f0c85610e52565b84529385019392850192610efb565b98975050505050505050565b634e487b7160e01b600052603260045260246000fd5b600060018201610f4f57610f4f610df5565b506001019056fea2646970667358221220a4f6cb3d86404383b1a8f76602b1b570fb9b0d3d50e60d7fa9a4ef8353018b5f64736f6c634300080f0033",
  "linkReferences": {},
  "deployedLinkReferences": {}
}