{
  "_format": "hh-sol-artifact-1",
  "contractName": "LazyGolos",
  "sourceName": "contracts/LazyGolos.sol",
  "abi": [
    {
      "inputs": [
        {
          "internalType": "address",
          "name": "member_1",
          "type": "address"
        },
        {
          "internalType": "address",
          "name": "member_2",
          "type": "address"
        },
        {
          "internalType": "address",
          "name": "member_3",
          "type": "address"
        }
      ],
      "stateMutability": "nonpayable",
      "type": "constructor"
    },
    {
      "anonymous": false,
      "inputs": [
        {
          "indexed": true,
          "internalType": "address",
          "name": "owner",
          "type": "address"
        },
        {
          "indexed": true,
          "internalType": "address",
          "name": "spender",
          "type": "address"
        },
        {
          "indexed": false,
          "internalType": "uint256",
          "name": "value",
          "type": "uint256"
        }
      ],
      "name": "Approval",
      "type": "event"
    },
    {
      "anonymous": false,
      "inputs": [
        {
          "indexed": true,
          "internalType": "address",
          "name": "from",
          "type": "address"
        },
        {
          "indexed": true,
          "internalType": "address",
          "name": "to",
          "type": "address"
        },
        {
          "indexed": false,
          "internalType": "uint256",
          "name": "value",
          "type": "uint256"
        }
      ],
      "name": "Transfer",
      "type": "event"
    },
    {
      "inputs": [
        {
          "internalType": "address",
          "name": "owner",
          "type": "address"
        },
        {
          "internalType": "address",
          "name": "spender",
          "type": "address"
        }
      ],
      "name": "allowance",
      "outputs": [
        {
          "internalType": "uint256",
          "name": "",
          "type": "uint256"
        }
      ],
      "stateMutability": "view",
      "type": "function"
    },
    {
      "inputs": [
        {
          "internalType": "address",
          "name": "spender",
          "type": "address"
        },
        {
          "internalType": "uint256",
          "name": "amount",
          "type": "uint256"
        }
      ],
      "name": "approve",
      "outputs": [
        {
          "internalType": "bool",
          "name": "",
          "type": "bool"
        }
      ],
      "stateMutability": "nonpayable",
      "type": "function"
    },
    {
      "inputs": [
        {
          "internalType": "address",
          "name": "account",
          "type": "address"
        }
      ],
      "name": "balanceOf",
      "outputs": [
        {
          "internalType": "uint256",
          "name": "",
          "type": "uint256"
        }
      ],
      "stateMutability": "view",
      "type": "function"
    },
    {
      "inputs": [
        {
          "internalType": "uint32",
          "name": "id",
          "type": "uint32"
        },
        {
          "internalType": "address",
          "name": "account",
          "type": "address"
        }
      ],
      "name": "balanceOfVoting",
      "outputs": [
        {
          "internalType": "uint256",
          "name": "",
          "type": "uint256"
        }
      ],
      "stateMutability": "view",
      "type": "function"
    },
    {
      "inputs": [
        {
          "internalType": "uint32",
          "name": "id",
          "type": "uint32"
        },
        {
          "internalType": "address",
          "name": "from",
          "type": "address"
        }
      ],
      "name": "burnVotes",
      "outputs": [
        {
          "internalType": "uint256",
          "name": "votes",
          "type": "uint256"
        }
      ],
      "stateMutability": "nonpayable",
      "type": "function"
    },
    {
      "inputs": [],
      "name": "claim",
      "outputs": [],
      "stateMutability": "nonpayable",
      "type": "function"
    },
    {
      "inputs": [],
      "name": "decimals",
      "outputs": [
        {
          "internalType": "uint8",
          "name": "",
          "type": "uint8"
        }
      ],
      "stateMutability": "pure",
      "type": "function"
    },
    {
      "inputs": [
        {
          "internalType": "address",
          "name": "spender",
          "type": "address"
        },
        {
          "internalType": "uint256",
          "name": "subtractedValue",
          "type": "uint256"
        }
      ],
      "name": "decreaseAllowance",
      "outputs": [
        {
          "internalType": "bool",
          "name": "",
          "type": "bool"
        }
      ],
      "stateMutability": "nonpayable",
      "type": "function"
    },
    {
      "inputs": [
        {
          "internalType": "address",
          "name": "spender",
          "type": "address"
        },
        {
          "internalType": "uint256",
          "name": "addedValue",
          "type": "uint256"
        }
      ],
      "name": "increaseAllowance",
      "outputs": [
        {
          "internalType": "bool",
          "name": "",
          "type": "bool"
        }
      ],
      "stateMutability": "nonpayable",
      "type": "function"
    },
    {
      "inputs": [],
      "name": "name",
      "outputs": [
        {
          "internalType": "string",
          "name": "",
          "type": "string"
        }
      ],
      "stateMutability": "view",
      "type": "function"
    },
    {
      "inputs": [],
      "name": "owner",
      "outputs": [
        {
          "internalType": "address",
          "name": "",
          "type": "address"
        }
      ],
      "stateMutability": "view",
      "type": "function"
    },
    {
      "inputs": [],
      "name": "symbol",
      "outputs": [
        {
          "internalType": "string",
          "name": "",
          "type": "string"
        }
      ],
      "stateMutability": "view",
      "type": "function"
    },
    {
      "inputs": [],
      "name": "totalSupply",
      "outputs": [
        {
          "internalType": "uint256",
          "name": "",
          "type": "uint256"
        }
      ],
      "stateMutability": "view",
      "type": "function"
    },
    {
      "inputs": [
        {
          "internalType": "address",
          "name": "to",
          "type": "address"
        },
        {
          "internalType": "uint256",
          "name": "amount",
          "type": "uint256"
        }
      ],
      "name": "transfer",
      "outputs": [
        {
          "internalType": "bool",
          "name": "",
          "type": "bool"
        }
      ],
      "stateMutability": "nonpayable",
      "type": "function"
    },
    {
      "inputs": [
        {
          "internalType": "address",
          "name": "from",
          "type": "address"
        },
        {
          "internalType": "address",
          "name": "to",
          "type": "address"
        },
        {
          "internalType": "uint256",
          "name": "amount",
          "type": "uint256"
        }
      ],
      "name": "transferFrom",
      "outputs": [
        {
          "internalType": "bool",
          "name": "",
          "type": "bool"
        }
      ],
      "stateMutability": "nonpayable",
      "type": "function"
    },
    {
      "inputs": [
        {
          "internalType": "contract VotingMachine",
          "name": "vm",
          "type": "address"
        }
      ],
      "name": "transferOwnership",
      "outputs": [],
      "stateMutability": "nonpayable",
      "type": "function"
    }
  ],
  "bytecode": "0x60806040523480156200001157600080fd5b50604051620016c8380380620016c883398101604081905262000034916200024d565b60405180604001604052806008815260200167476f6c6f7344414f60c01b8152506040518060400160405280600481526020016311d3d31160e21b815250818181600390816200008591906200033c565b5060046200009482826200033c565b5050600680546001600160a01b0319163317905550620000c1915061c350905061271062093a80620001ad565b6001600160a01b038416600090815260086020908152604091829020835181559083015160018201559082015160028201556060909101516003909101556200011361c350614e2062127500620001ad565b6001600160a01b038316600090815260086020908152604091829020835181559083015160018201559082015160028201556060909101516003909101556200016561c35061271062093a80620001ad565b6001600160a01b0390911660009081526008602090815260409182902083518155908301516001820155908201516002820155606090910151600390910155506200047d9050565b620001d96040518060800160405280600081526020016000815260200160008152602001600081525090565b604051806080016040528085815260200184815260200142815260200183670de0b6b3a764000086886200020e91906200041e565b6200021a919062000438565b6200022691906200045a565b9052949350505050565b80516001600160a01b03811681146200024857600080fd5b919050565b6000806000606084860312156200026357600080fd5b6200026e8462000230565b92506200027e6020850162000230565b91506200028e6040850162000230565b90509250925092565b634e487b7160e01b600052604160045260246000fd5b600181811c90821680620002c257607f821691505b602082108103620002e357634e487b7160e01b600052602260045260246000fd5b50919050565b601f8211156200033757600081815260208120601f850160051c81016020861015620003125750805b601f850160051c820191505b8181101562000333578281556001016200031e565b5050505b505050565b81516001600160401b0381111562000358576200035862000297565b6200037081620003698454620002ad565b84620002e9565b602080601f831160018114620003a857600084156200038f5750858301515b600019600386901b1c1916600185901b17855562000333565b600085815260208120601f198616915b82811015620003d957888601518255948401946001909101908401620003b8565b5085821015620003f85787850151600019600388901b60f8161c191681555b5050505050600190811b01905550565b634e487b7160e01b600052601160045260246000fd5b60008282101562000433576200043362000408565b500390565b600081600019048311821515161562000455576200045562000408565b500290565b6000826200047857634e487b7160e01b600052601260045260246000fd5b500490565b61123b806200048d6000396000f3fe608060405234801561001057600080fd5b50600436106101005760003560e01c806370a0823111610097578063a9059cbb11610066578063a9059cbb14610219578063dd62ed3e1461022c578063edeec0831461023f578063f2fde38b1461025257600080fd5b806370a08231146101aa5780638da5cb5b146101d357806395d89b41146101fe578063a457c2d71461020657600080fd5b80632da2ef24116100d35780632da2ef241461016b578063313ce5671461017e578063395093511461018d5780634e71d92d146101a057600080fd5b806306fdde0314610105578063095ea7b31461012357806318160ddd1461014657806323b872dd14610158575b600080fd5b61010d610265565b60405161011a9190610e89565b60405180910390f35b610136610131366004610ef6565b6102f7565b604051901515815260200161011a565b6002545b60405190815260200161011a565b610136610166366004610f22565b61030f565b61014a610179366004610f75565b610333565b6040516000815260200161011a565b61013661019b366004610ef6565b610461565b6101a8610483565b005b61014a6101b8366004610fae565b6001600160a01b031660009081526020819052604090205490565b6006546101e6906001600160a01b031681565b6040516001600160a01b03909116815260200161011a565b61010d6105f3565b610136610214366004610ef6565b610602565b610136610227366004610ef6565b61067d565b61014a61023a366004610fcb565b61068b565b61014a61024d366004610f75565b6106b6565b6101a8610260366004610fae565b610747565b60606003805461027490610fe9565b80601f01602080910402602001604051908101604052809291908181526020018280546102a090610fe9565b80156102ed5780601f106102c2576101008083540402835291602001916102ed565b820191906000526020600020905b8154815290600101906020018083116102d057829003601f168201915b5050505050905090565b60003361030581858561079d565b5060019392505050565b60003361031d8582856108c1565b61032885858561093b565b506001949350505050565b6006546000906001600160a01b031633146103695760405162461bcd60e51b815260040161036090611023565b60405180910390fd5b6001600160a01b038216600090815260076020908152604080832063ffffffff8716845290915290205460ff16156103d45760405162461bcd60e51b815260206004820152600e60248201526d616c726561647920766f7465642160901b6044820152606401610360565b506001600160a01b038116600090815260208190526040902054806104265760405162461bcd60e51b81526020600482015260086024820152676e6f20766f74652160c01b6044820152606401610360565b6001600160a01b03909116600090815260076020908152604080832063ffffffff909516835293905291909120805460ff1916600117905590565b600033610305818585610474838361068b565b61047e9190611062565b61079d565b33600090815260086020908152604091829020825160808101845281548152600182015492810192909252600281015492820192909252600390910154606082018190526104e35760405162461bcd60e51b815260040161036090611023565b80516105265760405162461bcd60e51b81526020600482015260126024820152716e6f206d6f726520746f6b656e732034207560701b6044820152606401610360565b60208101516000901561054c5760208201516105429082611062565b6000602084015290505b670de0b6b3a7640000826040015142610565919061107a565b83606001516105749190611091565b61057e91906110b0565b6105889082611062565b8251909150811115610598575080515b80826000018181516105aa919061107a565b90525042604080840191825233600081815260086020908152929020855181559185015160018301559151600282015560608401516003909101556105ef9082610b14565b5050565b60606004805461027490610fe9565b60003381610610828661068b565b9050838110156106705760405162461bcd60e51b815260206004820152602560248201527f45524332303a2064656372656173656420616c6c6f77616e63652062656c6f77604482015264207a65726f60d81b6064820152608401610360565b610328828686840361079d565b60003361030581858561093b565b6001600160a01b03918216600090815260016020908152604080832093909416825291909152205490565b60055460405163bfc60ef560e01b815263ffffffff841660048201526000916001600160a01b03169063bfc60ef590602401602060405180830381865afa158015610705573d6000803e3d6000fd5b505050506040513d601f19601f8201168201806040525081019061072991906110d2565b1561073d576107388383610bff565b610740565b60005b9392505050565b6006546001600160a01b031633146107715760405162461bcd60e51b815260040161036090611023565b600680546001600160a01b039092166001600160a01b0319928316811790915560058054909216179055565b6001600160a01b0383166107ff5760405162461bcd60e51b8152602060048201526024808201527f45524332303a20617070726f76652066726f6d20746865207a65726f206164646044820152637265737360e01b6064820152608401610360565b6001600160a01b0382166108605760405162461bcd60e51b815260206004820152602260248201527f45524332303a20617070726f766520746f20746865207a65726f206164647265604482015261737360f01b6064820152608401610360565b6001600160a01b0383811660008181526001602090815260408083209487168084529482529182902085905590518481527f8c5be1e5ebec7d5bd14f71427d1e84f3dd0314c0f7b2291e5b200ac8c7c3b925910160405180910390a3505050565b60006108cd848461068b565b9050600019811461093557818110156109285760405162461bcd60e51b815260206004820152601d60248201527f45524332303a20696e73756666696369656e7420616c6c6f77616e63650000006044820152606401610360565b610935848484840361079d565b50505050565b6001600160a01b03831661099f5760405162461bcd60e51b815260206004820152602560248201527f45524332303a207472616e736665722066726f6d20746865207a65726f206164604482015264647265737360d81b6064820152608401610360565b6001600160a01b038216610a015760405162461bcd60e51b815260206004820152602360248201527f45524332303a207472616e7366657220746f20746865207a65726f206164647260448201526265737360e81b6064820152608401610360565b610a0c838383610c78565b6001600160a01b03831660009081526020819052604090205481811015610a845760405162461bcd60e51b815260206004820152602660248201527f45524332303a207472616e7366657220616d6f756e7420657863656564732062604482015265616c616e636560d01b6064820152608401610360565b6001600160a01b03808516600090815260208190526040808220858503905591851681529081208054849290610abb908490611062565b92505081905550826001600160a01b0316846001600160a01b03167fddf252ad1be2c89b69c2b068fc378daa952ba7f163c4a11628f55a4df523b3ef84604051610b0791815260200190565b60405180910390a3610935565b6001600160a01b038216610b6a5760405162461bcd60e51b815260206004820152601f60248201527f45524332303a206d696e7420746f20746865207a65726f2061646472657373006044820152606401610360565b610b7660008383610c78565b8060026000828254610b889190611062565b90915550506001600160a01b03821660009081526020819052604081208054839290610bb5908490611062565b90915550506040518181526001600160a01b038316906000907fddf252ad1be2c89b69c2b068fc378daa952ba7f163c4a11628f55a4df523b3ef9060200160405180910390a35050565b6001600160a01b038116600090815260076020908152604080832063ffffffff8616845282528083208151808301909252805460ff1615158083526001909101549282019290925290610c6a576001600160a01b038316600090815260208190526040902054610c70565b80602001515b949350505050565b60055460408051633fb9121f60e01b815290516000926001600160a01b031691633fb9121f91600480830192869291908290030181865afa158015610cc1573d6000803e3d6000fd5b505050506040513d6000823e601f3d908101601f19168201604052610ce99190810190611111565b905060015b8151811015610e82576000828281518110610d0b57610d0b6111d6565b6020026020010151905083610d208288610bff565b101580610d3457506001600160a01b038616155b610d975760405162461bcd60e51b815260206004820152602e60248201527f45524332303a207472616e7366657220616d6f756e742065786365656473207660448201526d6f74696e67732062616c616e636560901b6064820152608401610360565b6001600160a01b038616600090815260076020908152604080832063ffffffff8516845290915290205460ff1615610dfd576001600160a01b038616600090815260076020908152604080832063ffffffff851684529091529020600101805485900390555b6001600160a01b038516600090815260076020908152604080832063ffffffff8516845290915290205460ff1615610e71576001600160a01b038516600090815260076020908152604080832063ffffffff8516845290915281206001018054869290610e6b908490611062565b90915550505b50610e7b816111ec565b9050610cee565b5050505050565b600060208083528351808285015260005b81811015610eb657858101830151858201604001528201610e9a565b81811115610ec8576000604083870101525b50601f01601f1916929092016040019392505050565b6001600160a01b0381168114610ef357600080fd5b50565b60008060408385031215610f0957600080fd5b8235610f1481610ede565b946020939093013593505050565b600080600060608486031215610f3757600080fd5b8335610f4281610ede565b92506020840135610f5281610ede565b929592945050506040919091013590565b63ffffffff81168114610ef357600080fd5b60008060408385031215610f8857600080fd5b8235610f9381610f63565b91506020830135610fa381610ede565b809150509250929050565b600060208284031215610fc057600080fd5b813561074081610ede565b60008060408385031215610fde57600080fd5b8235610f9381610ede565b600181811c90821680610ffd57607f821691505b60208210810361101d57634e487b7160e01b600052602260045260246000fd5b50919050565b6020808252600f908201526e696c6c6567616c206164647265737360881b604082015260600190565b634e487b7160e01b600052601160045260246000fd5b600082198211156110755761107561104c565b500190565b60008282101561108c5761108c61104c565b500390565b60008160001904831182151516156110ab576110ab61104c565b500290565b6000826110cd57634e487b7160e01b600052601260045260246000fd5b500490565b6000602082840312156110e457600080fd5b5051919050565b634e487b7160e01b600052604160045260246000fd5b805161110c81610f63565b919050565b6000602080838503121561112457600080fd5b825167ffffffffffffffff8082111561113c57600080fd5b818501915085601f83011261115057600080fd5b815181811115611162576111626110eb565b8060051b604051601f19603f83011681018181108582111715611187576111876110eb565b6040529182528482019250838101850191888311156111a557600080fd5b938501935b828510156111ca576111bb85611101565b845293850193928501926111aa565b98975050505050505050565b634e487b7160e01b600052603260045260246000fd5b6000600182016111fe576111fe61104c565b506001019056fea26469706673582212201cee321575b86d2c2fffea066248b8ce70c8fe29ea99b21085998aef9493b02d64736f6c634300080f0033",
  "linkReferences": {},
  "deployedLinkReferences": {}
}