{
  "_format": "hh-sol-artifact-1",
  "contractName": "VotingMachine",
  "sourceName": "contracts/VotingMachine.sol",
  "abi": [
    {
      "inputs": [],
      "stateMutability": "nonpayable",
      "type": "constructor"
    },
    {
      "anonymous": false,
      "inputs": [
        {
          "indexed": true,
          "internalType": "uint32",
          "name": "id",
          "type": "uint32"
        },
        {
          "indexed": true,
          "internalType": "address",
          "name": "initiator",
          "type": "address"
        },
        {
          "indexed": false,
          "internalType": "uint256",
          "name": "fee",
          "type": "uint256"
        },
        {
          "indexed": false,
          "internalType": "uint256",
          "name": "startTime",
          "type": "uint256"
        },
        {
          "indexed": false,
          "internalType": "uint256",
          "name": "endTime",
          "type": "uint256"
        }
      ],
      "name": "CreatedVoting",
      "type": "event"
    },
    {
      "anonymous": false,
      "inputs": [
        {
          "indexed": true,
          "internalType": "uint32",
          "name": "id",
          "type": "uint32"
        },
        {
          "indexed": false,
          "internalType": "uint256",
          "name": "fee",
          "type": "uint256"
        },
        {
          "indexed": false,
          "internalType": "uint256",
          "name": "yes",
          "type": "uint256"
        },
        {
          "indexed": false,
          "internalType": "uint256",
          "name": "no",
          "type": "uint256"
        }
      ],
      "name": "SummarizedVoting",
      "type": "event"
    },
    {
      "anonymous": false,
      "inputs": [
        {
          "indexed": true,
          "internalType": "uint32",
          "name": "id",
          "type": "uint32"
        },
        {
          "indexed": false,
          "internalType": "uint256",
          "name": "yes",
          "type": "uint256"
        },
        {
          "indexed": false,
          "internalType": "uint256",
          "name": "no",
          "type": "uint256"
        }
      ],
      "name": "UpdateVote",
      "type": "event"
    },
    {
      "inputs": [],
      "name": "actualVotings",
      "outputs": [
        {
          "internalType": "uint32[]",
          "name": "",
          "type": "uint32[]"
        }
      ],
      "stateMutability": "view",
      "type": "function"
    },
    {
      "inputs": [
        {
          "internalType": "uint256",
          "name": "newFee",
          "type": "uint256"
        }
      ],
      "name": "createVoting",
      "outputs": [],
      "stateMutability": "nonpayable",
      "type": "function"
    },
    {
      "inputs": [
        {
          "internalType": "uint256",
          "name": "newFee",
          "type": "uint256"
        },
        {
          "internalType": "uint256",
          "name": "duration",
          "type": "uint256"
        }
      ],
      "name": "createVoting",
      "outputs": [],
      "stateMutability": "nonpayable",
      "type": "function"
    },
    {
      "inputs": [
        {
          "internalType": "uint32",
          "name": "id",
          "type": "uint32"
        }
      ],
      "name": "findIndex",
      "outputs": [
        {
          "internalType": "uint256",
          "name": "",
          "type": "uint256"
        }
      ],
      "stateMutability": "view",
      "type": "function"
    },
    {
      "inputs": [],
      "name": "getAllVotings",
      "outputs": [
        {
          "components": [
            {
              "internalType": "uint256",
              "name": "newFee",
              "type": "uint256"
            },
            {
              "internalType": "uint256",
              "name": "deadline",
              "type": "uint256"
            },
            {
              "internalType": "uint256",
              "name": "yes",
              "type": "uint256"
            },
            {
              "internalType": "uint256",
              "name": "no",
              "type": "uint256"
            }
          ],
          "internalType": "struct VotingMachine.Voting[]",
          "name": "",
          "type": "tuple[]"
        }
      ],
      "stateMutability": "view",
      "type": "function"
    },
    {
      "inputs": [
        {
          "internalType": "uint32",
          "name": "id",
          "type": "uint32"
        }
      ],
      "name": "isActual",
      "outputs": [
        {
          "internalType": "bool",
          "name": "",
          "type": "bool"
        }
      ],
      "stateMutability": "view",
      "type": "function"
    },
    {
      "inputs": [],
      "name": "owner",
      "outputs": [
        {
          "internalType": "address",
          "name": "",
          "type": "address"
        }
      ],
      "stateMutability": "view",
      "type": "function"
    },
    {
      "inputs": [
        {
          "internalType": "contract DEFI",
          "name": "dao_",
          "type": "address"
        }
      ],
      "name": "setDAO",
      "outputs": [],
      "stateMutability": "nonpayable",
      "type": "function"
    },
    {
      "inputs": [
        {
          "internalType": "contract Golos",
          "name": "golos",
          "type": "address"
        }
      ],
      "name": "setTokens",
      "outputs": [],
      "stateMutability": "nonpayable",
      "type": "function"
    },
    {
      "inputs": [],
      "name": "summarizingAll",
      "outputs": [],
      "stateMutability": "nonpayable",
      "type": "function"
    },
    {
      "inputs": [],
      "name": "token",
      "outputs": [
        {
          "internalType": "contract Golos",
          "name": "",
          "type": "address"
        }
      ],
      "stateMutability": "view",
      "type": "function"
    },
    {
      "inputs": [
        {
          "internalType": "uint32",
          "name": "id",
          "type": "uint32"
        },
        {
          "internalType": "bool",
          "name": "uAgree",
          "type": "bool"
        }
      ],
      "name": "vote",
      "outputs": [],
      "stateMutability": "nonpayable",
      "type": "function"
    }
  ],
  "bytecode": "0x60a06040526000608090815261001990600390600161003e565b5034801561002657600080fd5b50600080546001600160a01b031916331790556100ff565b828054828255906000526020600020906007016008900481019282156100da5791602002820160005b838211156100a857835183826101000a81548163ffffffff021916908360ff1602179055509260200192600401602081600301049283019260010302610067565b80156100d85782816101000a81549063ffffffff02191690556004016020816003010492830192600103026100a8565b505b506100e69291506100ea565b5090565b5b808211156100e657600081556001016100eb565b6110cc8061010e6000396000f3fe608060405234801561001057600080fd5b50600436106100b45760003560e01c8063bfc60ef511610071578063bfc60ef514610150578063de99662114610171578063e4c41bb4146101ac578063e73a914c146101c1578063fa424708146101d4578063fc0c546a146101dc57600080fd5b80633655c87d146100b95780633fb9121f146100ce57806377cfd551146100ec5780638da5cb5b146100ff578063a639eb4d1461012a578063be5181021461013d575b600080fd5b6100cc6100c7366004610dec565b6101ef565b005b6100d66101fe565b6040516100e39190610e05565b60405180910390f35b6100cc6100fa366004610e68565b610282565b600054610112906001600160a01b031681565b6040516001600160a01b0390911681526020016100e3565b6100cc610138366004610eb9565b610417565b6100cc61014b366004610edd565b610480565b61016361015e366004610eff565b61084c565b6040519081526020016100e3565b61019c61017f366004610eff565b63ffffffff16600090815260046020526040902060010154421090565b60405190151581526020016100e3565b6101b46108bd565b6040516100e39190610f1a565b6100cc6101cf366004610eb9565b610a04565b6100cc610a6d565b600154610112906001600160a01b031681565b6101fb8161012c610480565b50565b6060600380548060200260200160405190810160405280929190818152602001828054801561027857602002820191906000526020600020906000905b82829054906101000a900463ffffffff1663ffffffff168152602001906004019060208260030104928301926001038202915080841161023b5790505b5050505050905090565b63ffffffff821660009081526004602052604090206001015442106102ee5760405162461bcd60e51b815260206004820152601760248201527f766f74696e6720616c72656164792066696e697368656400000000000000000060448201526064015b60405180910390fd5b600154604051630b68bbc960e21b815263ffffffff841660048201523360248201526000916001600160a01b031690632da2ef24906044016020604051808303816000875af1158015610345573d6000803e3d6000fd5b505050506040513d601f19601f820116820180604052508101906103699190610f7e565b63ffffffff8416600090815260046020526040902090915082156103a6578181600201600082825461039b9190610fad565b909155506103c09050565b818160030160008282546103ba9190610fad565b90915550505b8363ffffffff167fd0eeede7ea5d993345d74491dcfab773de9d32bb1e57a67477ec756b2a7f818d82600201548360030154604051610409929190918252602082015260400190565b60405180910390a250505050565b6000546001600160a01b0316331461045e5760405162461bcd60e51b815260206004820152600a6024820152693a9037379037bbb732b960b11b60448201526064016102e5565b600180546001600160a01b0319166001600160a01b0392909216919091179055565b600154604080516318160ddd60e01b81529051600a926001600160a01b0316916318160ddd9160048083019260209291908290030181865afa1580156104ca573d6000803e3d6000fd5b505050506040513d601f19601f820116820180604052508101906104ee9190610f7e565b6001546040516370a0823160e01b81523360048201526001600160a01b03909116906370a0823190602401602060405180830381865afa158015610536573d6000803e3d6000fd5b505050506040513d601f19601f8201168201806040525081019061055a9190610f7e565b610565906064610fc5565b61056f9190610fe4565b116105b45760405162461bcd60e51b8152602060048201526015602482015274752063616e27742063726561746520766f74696e6760581b60448201526064016102e5565b601e81101580156105c857506213c6808111155b6106095760405162461bcd60e51b81526020600482015260126024820152713ab731b7b93932b1ba10323ab930ba34b7b760711b60448201526064016102e5565b60006106158242610fad565b90506000600380548060200260200160405190810160405280929190818152602001828054801561069157602002820191906000526020600020906000905b82829054906101000a900463ffffffff1663ffffffff16815260200190600401906020826003010492830192600103820291508084116106545790505b50939450600193505050505b815181101561073557600460008383815181106106bc576106bc611006565b602002602001015163ffffffff1663ffffffff1681526020019081526020016000206001015483036107255760405162461bcd60e51b8152602060048201526012602482015271756e636f727265637420646561646c696e6560701b60448201526064016102e5565b61072e8161101c565b905061069d565b506000600460006002601481819054906101000a900463ffffffff1661075a90611035565b825461010092830a63ffffffff81810219909216928216908102929092179093558352602080840194909452604092830160009081208a815560018181018a9055600280546003805493840181559094527fc2575a0e9e593c00f959f8c92f12db2869c3395a3b0502d05e2516446f71f85b60088304018054600790931660040290950a80870219909216600160a01b94859004871690920291909117909355915484518b815242968101969096529385018890529094503393920416907f5c86981f96e5fb72bfc66c15a3529262df5245b64ef3ebb9e6932239dab42d429060600160405180910390a35050505050565b600060015b6003548110156108b4578263ffffffff166003828154811061087557610875611006565b6000918252602090912060088204015460079091166004026101000a900463ffffffff16036108a45792915050565b6108ad8161101c565b9050610851565b50600092915050565b6002546060906000906108de90600160a01b900463ffffffff166001611058565b63ffffffff1667ffffffffffffffff8111156108fc576108fc611080565b60405190808252806020026020018201604052801561095857816020015b6109456040518060800160405280600081526020016000815260200160008152602001600081525090565b81526020019060019003908161091a5790505b50905060005b60025463ffffffff600160a01b9091048116908216116109fe57600460008263ffffffff1663ffffffff168152602001908152602001600020604051806080016040529081600082015481526020016001820154815260200160028201548152602001600382015481525050828263ffffffff16815181106109e2576109e2611006565b6020026020010181905250806109f790611035565b905061095e565b50919050565b6000546001600160a01b03163314610a4b5760405162461bcd60e51b815260206004820152600a6024820152693a9037379037bbb732b960b11b60448201526064016102e5565b600280546001600160a01b0319166001600160a01b0392909216919091179055565b6000806000806003805480602002602001604051908101604052809291908181526020018280548015610aeb57602002820191906000526020600020906000905b82829054906101000a900463ffffffff1663ffffffff1681526020019060040190602082600301049283019260010382029150808411610aae5790505b5050505050905060008151905060008167ffffffffffffffff811115610b1357610b13611080565b604051908082528060200260200182016040528015610b3c578160200160208202803683370190505b50905060015b82811015610cc3576000848281518110610b5e57610b5e611006565b60200260200101519050610b898163ffffffff16600090815260046020526040902060010154421090565b15610bcc578083610b998a61101c565b99508981518110610bac57610bac611006565b602002602001019063ffffffff16908163ffffffff168152505050610cb3565b63ffffffff8116600090815260046020908152604091829020825160808101845281548152600182015492810192909252600281015492820183905260030154606082018190529091118015610c255750868160200151115b15610c365760208101518151985096505b8051604080830151606080850151835194855260208501929092529183015263ffffffff8416917fcf432cce0765ab8b6269cb3678d661289331e124df57e961faef254ec882f6b7910160405180910390a25063ffffffff1660009081526004602052604081208181556001810182905560028101829055600301555b610cbc8161101c565b9050610b42565b50610cd060036000610db3565b60005b868111610d45576003828281518110610cee57610cee611006565b60209081029190910181015182546001810184556000938452919092206008820401805460079092166004026101000a63ffffffff818102199093169290931692909202179055610d3e8161101c565b9050610cd3565b508315610dab576002546040516305b7472f60e21b8152600481018790526001600160a01b03909116906316dd1cbc90602401600060405180830381600087803b158015610d9257600080fd5b505af1158015610da6573d6000803e3d6000fd5b505050505b505050505050565b5080546000825560070160089004906000526020600020908101906101fb91905b80821115610de85760008155600101610dd4565b5090565b600060208284031215610dfe57600080fd5b5035919050565b6020808252825182820181905260009190848201906040850190845b81811015610e4357835163ffffffff1683529284019291840191600101610e21565b50909695505050505050565b803563ffffffff81168114610e6357600080fd5b919050565b60008060408385031215610e7b57600080fd5b610e8483610e4f565b915060208301358015158114610e9957600080fd5b809150509250929050565b6001600160a01b03811681146101fb57600080fd5b600060208284031215610ecb57600080fd5b8135610ed681610ea4565b9392505050565b60008060408385031215610ef057600080fd5b50508035926020909101359150565b600060208284031215610f1157600080fd5b610ed682610e4f565b602080825282518282018190526000919060409081850190868401855b82811015610f7157815180518552868101518786015285810151868601526060908101519085015260809093019290850190600101610f37565b5091979650505050505050565b600060208284031215610f9057600080fd5b5051919050565b634e487b7160e01b600052601160045260246000fd5b60008219821115610fc057610fc0610f97565b500190565b6000816000190483118215151615610fdf57610fdf610f97565b500290565b60008261100157634e487b7160e01b600052601260045260246000fd5b500490565b634e487b7160e01b600052603260045260246000fd5b60006001820161102e5761102e610f97565b5060010190565b600063ffffffff80831681810361104e5761104e610f97565b6001019392505050565b600063ffffffff80831681851680830382111561107757611077610f97565b01949350505050565b634e487b7160e01b600052604160045260246000fdfea2646970667358221220056a09cda8dbbec2fd3fd9babb8d9e7a7d5c276a36cb30727a0159d719da065964736f6c634300080f0033",
  "linkReferences": {},
  "deployedLinkReferences": {}
}