{
  "_format": "hh-sol-artifact-1",
  "contractName": "VotingMachine",
  "sourceName": "contracts/VotingMachine.sol",
  "abi": [
    {
      "inputs": [],
      "stateMutability": "nonpayable",
      "type": "constructor"
    },
    {
      "anonymous": false,
      "inputs": [
        {
          "indexed": true,
          "internalType": "uint32",
          "name": "id",
          "type": "uint32"
        },
        {
          "indexed": true,
          "internalType": "address",
          "name": "initiator",
          "type": "address"
        },
        {
          "indexed": false,
          "internalType": "uint256",
          "name": "fee",
          "type": "uint256"
        },
        {
          "indexed": false,
          "internalType": "uint256",
          "name": "startTime",
          "type": "uint256"
        },
        {
          "indexed": false,
          "internalType": "uint256",
          "name": "endTime",
          "type": "uint256"
        }
      ],
      "name": "CreatedVoting",
      "type": "event"
    },
    {
      "anonymous": false,
      "inputs": [
        {
          "indexed": true,
          "internalType": "uint32",
          "name": "id",
          "type": "uint32"
        },
        {
          "indexed": false,
          "internalType": "uint256",
          "name": "fee",
          "type": "uint256"
        },
        {
          "indexed": false,
          "internalType": "uint256",
          "name": "yes",
          "type": "uint256"
        },
        {
          "indexed": false,
          "internalType": "uint256",
          "name": "no",
          "type": "uint256"
        }
      ],
      "name": "SummarizedVoting",
      "type": "event"
    },
    {
      "anonymous": false,
      "inputs": [
        {
          "indexed": true,
          "internalType": "uint32",
          "name": "id",
          "type": "uint32"
        },
        {
          "indexed": false,
          "internalType": "uint256",
          "name": "yes",
          "type": "uint256"
        },
        {
          "indexed": false,
          "internalType": "uint256",
          "name": "no",
          "type": "uint256"
        }
      ],
      "name": "UpdateVote",
      "type": "event"
    },
    {
      "inputs": [],
      "name": "actualVotings",
      "outputs": [
        {
          "internalType": "uint32[]",
          "name": "",
          "type": "uint32[]"
        }
      ],
      "stateMutability": "view",
      "type": "function"
    },
    {
      "inputs": [
        {
          "internalType": "uint256",
          "name": "newFee",
          "type": "uint256"
        }
      ],
      "name": "createVoting",
      "outputs": [],
      "stateMutability": "nonpayable",
      "type": "function"
    },
    {
      "inputs": [
        {
          "internalType": "uint256",
          "name": "newFee",
          "type": "uint256"
        },
        {
          "internalType": "uint256",
          "name": "duration",
          "type": "uint256"
        }
      ],
      "name": "createVoting",
      "outputs": [],
      "stateMutability": "nonpayable",
      "type": "function"
    },
    {
      "inputs": [],
      "name": "dao",
      "outputs": [
        {
          "internalType": "contract DEFI",
          "name": "",
          "type": "address"
        }
      ],
      "stateMutability": "view",
      "type": "function"
    },
    {
      "inputs": [
        {
          "internalType": "uint32",
          "name": "id",
          "type": "uint32"
        }
      ],
      "name": "findIndex",
      "outputs": [
        {
          "internalType": "uint256",
          "name": "",
          "type": "uint256"
        }
      ],
      "stateMutability": "view",
      "type": "function"
    },
    {
      "inputs": [
        {
          "internalType": "uint32",
          "name": "id",
          "type": "uint32"
        }
      ],
      "name": "isActual",
      "outputs": [
        {
          "internalType": "bool",
          "name": "",
          "type": "bool"
        }
      ],
      "stateMutability": "view",
      "type": "function"
    },
    {
      "inputs": [],
      "name": "owner",
      "outputs": [
        {
          "internalType": "address",
          "name": "",
          "type": "address"
        }
      ],
      "stateMutability": "view",
      "type": "function"
    },
    {
      "inputs": [
        {
          "internalType": "contract DEFI",
          "name": "dao_",
          "type": "address"
        }
      ],
      "name": "setDAO",
      "outputs": [],
      "stateMutability": "nonpayable",
      "type": "function"
    },
    {
      "inputs": [
        {
          "internalType": "contract Golos",
          "name": "golos",
          "type": "address"
        }
      ],
      "name": "setTokens",
      "outputs": [],
      "stateMutability": "nonpayable",
      "type": "function"
    },
    {
      "inputs": [],
      "name": "summarizingAll",
      "outputs": [],
      "stateMutability": "nonpayable",
      "type": "function"
    },
    {
      "inputs": [],
      "name": "token",
      "outputs": [
        {
          "internalType": "contract Golos",
          "name": "",
          "type": "address"
        }
      ],
      "stateMutability": "view",
      "type": "function"
    },
    {
      "inputs": [
        {
          "internalType": "uint32",
          "name": "id",
          "type": "uint32"
        },
        {
          "internalType": "bool",
          "name": "uAgree",
          "type": "bool"
        }
      ],
      "name": "vote",
      "outputs": [],
      "stateMutability": "nonpayable",
      "type": "function"
    }
  ],
  "bytecode": "0x60a06040526000608090815261001990600390600161003e565b5034801561002657600080fd5b50600080546001600160a01b031916331790556100ff565b828054828255906000526020600020906007016008900481019282156100da5791602002820160005b838211156100a857835183826101000a81548163ffffffff021916908360ff1602179055509260200192600401602081600301049283019260010302610067565b80156100d85782816101000a81549063ffffffff02191690556004016020816003010492830192600103026100a8565b505b506100e69291506100ea565b5090565b5b808211156100e657600081556001016100eb565b610ef78061010e6000396000f3fe608060405234801561001057600080fd5b50600436106100b45760003560e01c8063be51810211610071578063be51810214610150578063bfc60ef514610163578063de99662114610184578063e73a914c146101bf578063fa424708146101d2578063fc0c546a146101da57600080fd5b80633655c87d146100b95780633fb9121f146100ce5780634162169f146100ec57806377cfd551146101175780638da5cb5b1461012a578063a639eb4d1461013d575b600080fd5b6100cc6100c7366004610ca3565b6101ed565b005b6100d66101fc565b6040516100e39190610cbc565b60405180910390f35b6002546100ff906001600160a01b031681565b6040516001600160a01b0390911681526020016100e3565b6100cc610125366004610d1f565b610280565b6000546100ff906001600160a01b031681565b6100cc61014b366004610d70565b610415565b6100cc61015e366004610d94565b61047e565b610176610171366004610db6565b61084a565b6040519081526020016100e3565b6101af610192366004610db6565b63ffffffff16600090815260046020526040902060010154421090565b60405190151581526020016100e3565b6100cc6101cd366004610d70565b6108bb565b6100cc610924565b6001546100ff906001600160a01b031681565b6101f98161012c61047e565b50565b6060600380548060200260200160405190810160405280929190818152602001828054801561027657602002820191906000526020600020906000905b82829054906101000a900463ffffffff1663ffffffff16815260200190600401906020826003010492830192600103820291508084116102395790505b5050505050905090565b63ffffffff821660009081526004602052604090206001015442106102ec5760405162461bcd60e51b815260206004820152601760248201527f766f74696e6720616c72656164792066696e697368656400000000000000000060448201526064015b60405180910390fd5b600154604051630b68bbc960e21b815263ffffffff841660048201523360248201526000916001600160a01b031690632da2ef24906044016020604051808303816000875af1158015610343573d6000803e3d6000fd5b505050506040513d601f19601f820116820180604052508101906103679190610dd1565b63ffffffff8416600090815260046020526040902090915082156103a457818160020160008282546103999190610e00565b909155506103be9050565b818160030160008282546103b89190610e00565b90915550505b8363ffffffff167fd0eeede7ea5d993345d74491dcfab773de9d32bb1e57a67477ec756b2a7f818d82600201548360030154604051610407929190918252602082015260400190565b60405180910390a250505050565b6000546001600160a01b0316331461045c5760405162461bcd60e51b815260206004820152600a6024820152693a9037379037bbb732b960b11b60448201526064016102e3565b600180546001600160a01b0319166001600160a01b0392909216919091179055565b600154604080516318160ddd60e01b81529051600a926001600160a01b0316916318160ddd9160048083019260209291908290030181865afa1580156104c8573d6000803e3d6000fd5b505050506040513d601f19601f820116820180604052508101906104ec9190610dd1565b6001546040516370a0823160e01b81523360048201526001600160a01b03909116906370a0823190602401602060405180830381865afa158015610534573d6000803e3d6000fd5b505050506040513d601f19601f820116820180604052508101906105589190610dd1565b610563906064610e18565b61056d9190610e37565b116105b25760405162461bcd60e51b8152602060048201526015602482015274752063616e27742063726561746520766f74696e6760581b60448201526064016102e3565b602881101580156105c657506213c6808111155b6106075760405162461bcd60e51b81526020600482015260126024820152713ab731b7b93932b1ba10323ab930ba34b7b760711b60448201526064016102e3565b60006106138242610e00565b90506000600380548060200260200160405190810160405280929190818152602001828054801561068f57602002820191906000526020600020906000905b82829054906101000a900463ffffffff1663ffffffff16815260200190600401906020826003010492830192600103820291508084116106525790505b50939450600193505050505b815181101561073357600460008383815181106106ba576106ba610e59565b602002602001015163ffffffff1663ffffffff1681526020019081526020016000206001015483036107235760405162461bcd60e51b8152602060048201526012602482015271756e636f727265637420646561646c696e6560701b60448201526064016102e3565b61072c81610e6f565b905061069b565b506000600460006002601481819054906101000a900463ffffffff1661075890610e88565b825461010092830a63ffffffff81810219909216928216908102929092179093558352602080840194909452604092830160009081208a815560018181018a9055600280546003805493840181559094527fc2575a0e9e593c00f959f8c92f12db2869c3395a3b0502d05e2516446f71f85b60088304018054600790931660040290950a80870219909216600160a01b94859004871690920291909117909355915484518b815242968101969096529385018890529094503393920416907f5c86981f96e5fb72bfc66c15a3529262df5245b64ef3ebb9e6932239dab42d429060600160405180910390a35050505050565b600060015b6003548110156108b2578263ffffffff166003828154811061087357610873610e59565b6000918252602090912060088204015460079091166004026101000a900463ffffffff16036108a25792915050565b6108ab81610e6f565b905061084f565b50600092915050565b6000546001600160a01b031633146109025760405162461bcd60e51b815260206004820152600a6024820152693a9037379037bbb732b960b11b60448201526064016102e3565b600280546001600160a01b0319166001600160a01b0392909216919091179055565b60008060008060038054806020026020016040519081016040528092919081815260200182805480156109a257602002820191906000526020600020906000905b82829054906101000a900463ffffffff1663ffffffff16815260200190600401906020826003010492830192600103820291508084116109655790505b5050505050905060008151905060008167ffffffffffffffff8111156109ca576109ca610eab565b6040519080825280602002602001820160405280156109f3578160200160208202803683370190505b50905060015b82811015610b7a576000848281518110610a1557610a15610e59565b60200260200101519050610a408163ffffffff16600090815260046020526040902060010154421090565b15610a83578083610a508a610e6f565b99508981518110610a6357610a63610e59565b602002602001019063ffffffff16908163ffffffff168152505050610b6a565b63ffffffff8116600090815260046020908152604091829020825160808101845281548152600182015492810192909252600281015492820183905260030154606082018190529091118015610adc5750868160200151115b15610aed5760208101518151985096505b8051604080830151606080850151835194855260208501929092529183015263ffffffff8416917fcf432cce0765ab8b6269cb3678d661289331e124df57e961faef254ec882f6b7910160405180910390a25063ffffffff1660009081526004602052604081208181556001810182905560028101829055600301555b610b7381610e6f565b90506109f9565b50610b8760036000610c6a565b60005b868111610bfc576003828281518110610ba557610ba5610e59565b60209081029190910181015182546001810184556000938452919092206008820401805460079092166004026101000a63ffffffff818102199093169290931692909202179055610bf581610e6f565b9050610b8a565b508315610c62576002546040516305b7472f60e21b8152600481018790526001600160a01b03909116906316dd1cbc90602401600060405180830381600087803b158015610c4957600080fd5b505af1158015610c5d573d6000803e3d6000fd5b505050505b505050505050565b5080546000825560070160089004906000526020600020908101906101f991905b80821115610c9f5760008155600101610c8b565b5090565b600060208284031215610cb557600080fd5b5035919050565b6020808252825182820181905260009190848201906040850190845b81811015610cfa57835163ffffffff1683529284019291840191600101610cd8565b50909695505050505050565b803563ffffffff81168114610d1a57600080fd5b919050565b60008060408385031215610d3257600080fd5b610d3b83610d06565b915060208301358015158114610d5057600080fd5b809150509250929050565b6001600160a01b03811681146101f957600080fd5b600060208284031215610d8257600080fd5b8135610d8d81610d5b565b9392505050565b60008060408385031215610da757600080fd5b50508035926020909101359150565b600060208284031215610dc857600080fd5b610d8d82610d06565b600060208284031215610de357600080fd5b5051919050565b634e487b7160e01b600052601160045260246000fd5b60008219821115610e1357610e13610dea565b500190565b6000816000190483118215151615610e3257610e32610dea565b500290565b600082610e5457634e487b7160e01b600052601260045260246000fd5b500490565b634e487b7160e01b600052603260045260246000fd5b600060018201610e8157610e81610dea565b5060010190565b600063ffffffff808316818103610ea157610ea1610dea565b6001019392505050565b634e487b7160e01b600052604160045260246000fdfea2646970667358221220c125142c1b9cfc7c4165e608fd6ab1879cb98470a124f7c9a262532ad1b173f264736f6c634300080f0033",
  "linkReferences": {},
  "deployedLinkReferences": {}
}