{
  "_format": "hh-sol-artifact-1",
  "contractName": "VotingMachine",
  "sourceName": "contracts/VotingMachine.sol",
  "abi": [
    {
      "inputs": [],
      "stateMutability": "nonpayable",
      "type": "constructor"
    },
    {
      "anonymous": false,
      "inputs": [
        {
          "indexed": true,
          "internalType": "uint32",
          "name": "id",
          "type": "uint32"
        },
        {
          "indexed": true,
          "internalType": "address",
          "name": "initiator",
          "type": "address"
        },
        {
          "indexed": false,
          "internalType": "uint256",
          "name": "fee",
          "type": "uint256"
        },
        {
          "indexed": false,
          "internalType": "uint256",
          "name": "startTime",
          "type": "uint256"
        },
        {
          "indexed": false,
          "internalType": "uint256",
          "name": "endTime",
          "type": "uint256"
        }
      ],
      "name": "CreatedVoting",
      "type": "event"
    },
    {
      "anonymous": false,
      "inputs": [
        {
          "indexed": true,
          "internalType": "uint32",
          "name": "id",
          "type": "uint32"
        },
        {
          "indexed": false,
          "internalType": "uint256",
          "name": "fee",
          "type": "uint256"
        },
        {
          "indexed": false,
          "internalType": "uint256",
          "name": "yes",
          "type": "uint256"
        },
        {
          "indexed": false,
          "internalType": "uint256",
          "name": "no",
          "type": "uint256"
        }
      ],
      "name": "SummarizedVoting",
      "type": "event"
    },
    {
      "anonymous": false,
      "inputs": [
        {
          "indexed": true,
          "internalType": "uint32",
          "name": "id",
          "type": "uint32"
        },
        {
          "indexed": false,
          "internalType": "uint256",
          "name": "yes",
          "type": "uint256"
        },
        {
          "indexed": false,
          "internalType": "uint256",
          "name": "no",
          "type": "uint256"
        }
      ],
      "name": "UpdateVote",
      "type": "event"
    },
    {
      "inputs": [],
      "name": "actualVotings",
      "outputs": [
        {
          "internalType": "uint32[]",
          "name": "",
          "type": "uint32[]"
        }
      ],
      "stateMutability": "view",
      "type": "function"
    },
    {
      "inputs": [
        {
          "internalType": "uint256",
          "name": "newFee",
          "type": "uint256"
        }
      ],
      "name": "createVoting",
      "outputs": [],
      "stateMutability": "nonpayable",
      "type": "function"
    },
    {
      "inputs": [
        {
          "internalType": "uint256",
          "name": "newFee",
          "type": "uint256"
        },
        {
          "internalType": "uint256",
          "name": "duration",
          "type": "uint256"
        }
      ],
      "name": "createVoting",
      "outputs": [],
      "stateMutability": "nonpayable",
      "type": "function"
    },
    {
      "inputs": [
        {
          "internalType": "uint32",
          "name": "id",
          "type": "uint32"
        }
      ],
      "name": "findIndex",
      "outputs": [
        {
          "internalType": "uint256",
          "name": "",
          "type": "uint256"
        }
      ],
      "stateMutability": "view",
      "type": "function"
    },
    {
      "inputs": [],
      "name": "getAllVotings",
      "outputs": [
        {
          "components": [
            {
              "internalType": "uint256",
              "name": "newFee",
              "type": "uint256"
            },
            {
              "internalType": "uint256",
              "name": "deadline",
              "type": "uint256"
            },
            {
              "internalType": "uint256",
              "name": "yes",
              "type": "uint256"
            },
            {
              "internalType": "uint256",
              "name": "no",
              "type": "uint256"
            }
          ],
          "internalType": "struct VotingMachine.Voting[]",
          "name": "",
          "type": "tuple[]"
        }
      ],
      "stateMutability": "view",
      "type": "function"
    },
    {
      "inputs": [
        {
          "internalType": "uint32",
          "name": "id",
          "type": "uint32"
        }
      ],
      "name": "isActual",
      "outputs": [
        {
          "internalType": "bool",
          "name": "",
          "type": "bool"
        }
      ],
      "stateMutability": "view",
      "type": "function"
    },
    {
      "inputs": [
        {
          "internalType": "uint256",
          "name": "",
          "type": "uint256"
        }
      ],
      "name": "openedId",
      "outputs": [
        {
          "internalType": "uint32",
          "name": "",
          "type": "uint32"
        }
      ],
      "stateMutability": "view",
      "type": "function"
    },
    {
      "inputs": [],
      "name": "owner",
      "outputs": [
        {
          "internalType": "address",
          "name": "",
          "type": "address"
        }
      ],
      "stateMutability": "view",
      "type": "function"
    },
    {
      "inputs": [
        {
          "internalType": "contract DEFI",
          "name": "dao_",
          "type": "address"
        }
      ],
      "name": "setDAO",
      "outputs": [],
      "stateMutability": "nonpayable",
      "type": "function"
    },
    {
      "inputs": [
        {
          "internalType": "contract Golos",
          "name": "golos",
          "type": "address"
        }
      ],
      "name": "setTokens",
      "outputs": [],
      "stateMutability": "nonpayable",
      "type": "function"
    },
    {
      "inputs": [],
      "name": "summarizingAll",
      "outputs": [],
      "stateMutability": "nonpayable",
      "type": "function"
    },
    {
      "inputs": [],
      "name": "token",
      "outputs": [
        {
          "internalType": "contract Golos",
          "name": "",
          "type": "address"
        }
      ],
      "stateMutability": "view",
      "type": "function"
    },
    {
      "inputs": [
        {
          "internalType": "uint32",
          "name": "id",
          "type": "uint32"
        },
        {
          "internalType": "bool",
          "name": "uAgree",
          "type": "bool"
        }
      ],
      "name": "vote",
      "outputs": [],
      "stateMutability": "nonpayable",
      "type": "function"
    }
  ],
  "bytecode": "0x60a06040526000608090815261001990600390600161003e565b5034801561002657600080fd5b50600080546001600160a01b031916331790556100ff565b828054828255906000526020600020906007016008900481019282156100da5791602002820160005b838211156100a857835183826101000a81548163ffffffff021916908360ff1602179055509260200192600401602081600301049283019260010302610067565b80156100d85782816101000a81549063ffffffff02191690556004016020816003010492830192600103026100a8565b505b506100e69291506100ea565b5090565b5b808211156100e657600081556001016100eb565b61115d806200010f6000396000f3fe608060405234801561001057600080fd5b50600436106100cf5760003560e01c8063be5181021161008c578063e4c41bb411610066578063e4c41bb4146101ef578063e73a914c14610204578063fa42470814610217578063fc0c546a1461021f57600080fd5b8063be51810214610180578063bfc60ef514610193578063de996621146101b457600080fd5b80633655c87d146100d45780633fb9121f146100e957806347f48e131461010757806377cfd5511461012f5780638da5cb5b14610142578063a639eb4d1461016d575b600080fd5b6100e76100e2366004610e59565b610232565b005b6100f1610241565b6040516100fe9190610e72565b60405180910390f35b61011a610115366004610e59565b6102c5565b60405163ffffffff90911681526020016100fe565b6100e761013d366004610ed5565b6102ff565b600054610155906001600160a01b031681565b6040516001600160a01b0390911681526020016100fe565b6100e761017b366004610f26565b610494565b6100e761018e366004610f4a565b6104e0565b6101a66101a1366004610f6c565b6108ac565b6040519081526020016100fe565b6101df6101c2366004610f6c565b63ffffffff16600090815260046020526040902060010154421090565b60405190151581526020016100fe565b6101f761091d565b6040516100fe9190610f87565b6100e7610212366004610f26565b610a64565b6100e7610ab0565b600154610155906001600160a01b031681565b61023e8161012c6104e0565b50565b606060038054806020026020016040519081016040528092919081815260200182805480156102bb57602002820191906000526020600020906000905b82829054906101000a900463ffffffff1663ffffffff168152602001906004019060208260030104928301926001038202915080841161027e5790505b5050505050905090565b600381815481106102d557600080fd5b9060005260206000209060089182820401919006600402915054906101000a900463ffffffff1681565b63ffffffff8216600090815260046020526040902060010154421061036b5760405162461bcd60e51b815260206004820152601760248201527f766f74696e6720616c72656164792066696e697368656400000000000000000060448201526064015b60405180910390fd5b600154604051630b68bbc960e21b815263ffffffff841660048201523360248201526000916001600160a01b031690632da2ef24906044016020604051808303816000875af11580156103c2573d6000803e3d6000fd5b505050506040513d601f19601f820116820180604052508101906103e69190610feb565b63ffffffff8416600090815260046020526040902090915082156104235781816002016000828254610418919061101a565b9091555061043d9050565b81816003016000828254610437919061101a565b90915550505b8363ffffffff167fd0eeede7ea5d993345d74491dcfab773de9d32bb1e57a67477ec756b2a7f818d82600201548360030154604051610486929190918252602082015260400190565b60405180910390a250505050565b6000546001600160a01b031633146104be5760405162461bcd60e51b815260040161036290611032565b600180546001600160a01b0319166001600160a01b0392909216919091179055565b600154604080516318160ddd60e01b81529051600a926001600160a01b0316916318160ddd9160048083019260209291908290030181865afa15801561052a573d6000803e3d6000fd5b505050506040513d601f19601f8201168201806040525081019061054e9190610feb565b6001546040516370a0823160e01b81523360048201526001600160a01b03909116906370a0823190602401602060405180830381865afa158015610596573d6000803e3d6000fd5b505050506040513d601f19601f820116820180604052508101906105ba9190610feb565b6105c5906064611056565b6105cf9190611075565b116106145760405162461bcd60e51b8152602060048201526015602482015274752063616e27742063726561746520766f74696e6760581b6044820152606401610362565b601e811015801561062857506213c6808111155b6106695760405162461bcd60e51b81526020600482015260126024820152713ab731b7b93932b1ba10323ab930ba34b7b760711b6044820152606401610362565b6000610675824261101a565b9050600060038054806020026020016040519081016040528092919081815260200182805480156106f157602002820191906000526020600020906000905b82829054906101000a900463ffffffff1663ffffffff16815260200190600401906020826003010492830192600103820291508084116106b45790505b50939450600193505050505b8151811015610795576004600083838151811061071c5761071c611097565b602002602001015163ffffffff1663ffffffff1681526020019081526020016000206001015483036107855760405162461bcd60e51b8152602060048201526012602482015271756e636f727265637420646561646c696e6560701b6044820152606401610362565b61078e816110ad565b90506106fd565b506000600460006002601481819054906101000a900463ffffffff166107ba906110c6565b825461010092830a63ffffffff81810219909216928216908102929092179093558352602080840194909452604092830160009081208a815560018181018a9055600280546003805493840181559094527fc2575a0e9e593c00f959f8c92f12db2869c3395a3b0502d05e2516446f71f85b60088304018054600790931660040290950a80870219909216600160a01b94859004871690920291909117909355915484518b815242968101969096529385018890529094503393920416907f5c86981f96e5fb72bfc66c15a3529262df5245b64ef3ebb9e6932239dab42d429060600160405180910390a35050505050565b600060015b600354811015610914578263ffffffff16600382815481106108d5576108d5611097565b6000918252602090912060088204015460079091166004026101000a900463ffffffff16036109045792915050565b61090d816110ad565b90506108b1565b50600092915050565b60025460609060009061093e90600160a01b900463ffffffff1660016110e9565b63ffffffff1667ffffffffffffffff81111561095c5761095c611111565b6040519080825280602002602001820160405280156109b857816020015b6109a56040518060800160405280600081526020016000815260200160008152602001600081525090565b81526020019060019003908161097a5790505b50905060005b60025463ffffffff600160a01b909104811690821611610a5e57600460008263ffffffff1663ffffffff168152602001908152602001600020604051806080016040529081600082015481526020016001820154815260200160028201548152602001600382015481525050828263ffffffff1681518110610a4257610a42611097565b602002602001018190525080610a57906110c6565b90506109be565b50919050565b6000546001600160a01b03163314610a8e5760405162461bcd60e51b815260040161036290611032565b600280546001600160a01b0319166001600160a01b0392909216919091179055565b6000546001600160a01b03163314610ada5760405162461bcd60e51b815260040161036290611032565b6000806000806003805480602002602001604051908101604052809291908181526020018280548015610b5857602002820191906000526020600020906000905b82829054906101000a900463ffffffff1663ffffffff1681526020019060040190602082600301049283019260010382029150808411610b1b5790505b5050505050905060008151905060008167ffffffffffffffff811115610b8057610b80611111565b604051908082528060200260200182016040528015610ba9578160200160208202803683370190505b50905060015b82811015610d30576000848281518110610bcb57610bcb611097565b60200260200101519050610bf68163ffffffff16600090815260046020526040902060010154421090565b15610c39578083610c068a6110ad565b99508981518110610c1957610c19611097565b602002602001019063ffffffff16908163ffffffff168152505050610d20565b63ffffffff8116600090815260046020908152604091829020825160808101845281548152600182015492810192909252600281015492820183905260030154606082018190529091118015610c925750868160200151115b15610ca35760208101518151985096505b8051604080830151606080850151835194855260208501929092529183015263ffffffff8416917fcf432cce0765ab8b6269cb3678d661289331e124df57e961faef254ec882f6b7910160405180910390a25063ffffffff1660009081526004602052604081208181556001810182905560028101829055600301555b610d29816110ad565b9050610baf565b50610d3d60036000610e20565b60005b868111610db2576003828281518110610d5b57610d5b611097565b60209081029190910181015182546001810184556000938452919092206008820401805460079092166004026101000a63ffffffff818102199093169290931692909202179055610dab816110ad565b9050610d40565b508315610e18576002546040516305b7472f60e21b8152600481018790526001600160a01b03909116906316dd1cbc90602401600060405180830381600087803b158015610dff57600080fd5b505af1158015610e13573d6000803e3d6000fd5b505050505b505050505050565b50805460008255600701600890049060005260206000209081019061023e91905b80821115610e555760008155600101610e41565b5090565b600060208284031215610e6b57600080fd5b5035919050565b6020808252825182820181905260009190848201906040850190845b81811015610eb057835163ffffffff1683529284019291840191600101610e8e565b50909695505050505050565b803563ffffffff81168114610ed057600080fd5b919050565b60008060408385031215610ee857600080fd5b610ef183610ebc565b915060208301358015158114610f0657600080fd5b809150509250929050565b6001600160a01b038116811461023e57600080fd5b600060208284031215610f3857600080fd5b8135610f4381610f11565b9392505050565b60008060408385031215610f5d57600080fd5b50508035926020909101359150565b600060208284031215610f7e57600080fd5b610f4382610ebc565b602080825282518282018190526000919060409081850190868401855b82811015610fde57815180518552868101518786015285810151868601526060908101519085015260809093019290850190600101610fa4565b5091979650505050505050565b600060208284031215610ffd57600080fd5b5051919050565b634e487b7160e01b600052601160045260246000fd5b6000821982111561102d5761102d611004565b500190565b6020808252600a90820152693a9037379037bbb732b960b11b604082015260600190565b600081600019048311821515161561107057611070611004565b500290565b60008261109257634e487b7160e01b600052601260045260246000fd5b500490565b634e487b7160e01b600052603260045260246000fd5b6000600182016110bf576110bf611004565b5060010190565b600063ffffffff8083168181036110df576110df611004565b6001019392505050565b600063ffffffff80831681851680830382111561110857611108611004565b01949350505050565b634e487b7160e01b600052604160045260246000fdfea26469706673582212202595178f1b692ae121f64110eabe8f17a949f9b0a85102e90ac9ea33d0c9a5dc64736f6c634300080f0033",
  "linkReferences": {},
  "deployedLinkReferences": {}
}